S00C0000486F70652E737265638C
S11300000C942A000C94E9020C9410030C9437030A
S11300100C942B040C9402040C9447000C94470099
S11300200C9447000C9447000C94D9030C94B0032F
S11300300C9447000C9454040C9447000C947D04D5
S11300400C94FE010C9447000C9447000C94470058
S11300500C94470011241FBECFE5D8E0DEBFCDBF0E
S113006010E0A0E6B0E0EEE3FBE002C005900D92E4
S1130070A837B107D9F720E0A8E7B0E001C01D9286
S1130080AB3AB207E1F70E94B8010C949D050C94B9
S11300900000CF93DF93EC018C81813081F028F054
S11300A08230F9F08330A1F144C06E818D810E94C9
S11300B09402988189133DC081E08C833AC06E819B
S11300C08D810E9494029881891309C082E08C83F7
S11300D0898181112EC0EA81FB8109952AC01C8285
S11300E028C06E818D810E949402988189130DC06D
S11300F08981813019F4EA81FB81099583E294EFC7
S11301000197F1F700C0000014C083E08C8311C094
S11301106E818D810E9494029881891741F01C821E
S11301208981823031F4EA81FB81099502C082E041
S11301308C83DF91CF910895CF92DF92EF92FF925B
S11301400F931F93CF93DF93EC01D62EF42EC22E80
S113015040E06F2D8D2D0E9427021B830A83C982E4
S1130160DD82FE821C82E882DF91CF911F910F9184
S1130170FF90EF90DF90CF900895CF93C82F40E089
S113018065E082E00E94510240E064E082E00E9467
S113019051024C2F407150E0559547955595479520
S11301A0559547955595479560E082E00E94510228
S11301B04C2F407250E05595479555954795559568
S11301C04795559547955595479561E082E00E947E
S11301D051024C2F407450E0042E452F000C441F54
S11301E0550B000C441F551F62E082E00E9451022F
S11301F04C2F441F4427441F63E082E00E945102B5
S113020041E066E082E00E94510283EF91E00197B1
S1130210F1F700C0000040E066E082E00E94510275
S113022083EF91E00197F1F700C000004C2F41707B
S113023060E082E00E9451024C2F427050E05595DC
S1130240479561E082E00E9451024C2F447050E0D7
S1130250559547955595479562E082E00E94510275
S1130260C8704C2F50E05595479555954795559531
S1130270479563E082E00E94510241E066E082E03B
S11302800E94510283EF91E00197F1F700C0000052
S113029040E066E082E00E94510283EF91E0019722
S11302A0F1F700C00000CF91089541E064E082E0DE
S11302B00E94270241E066E082E00E94270241E0BA
S11302C065E082E00E94270241E060E082E00E9453
S11302D0270241E061E082E00E94270241E062E0FF
S11302E082E00E94270241E063E082E00E9427024C
S11302F085EA9EE00197F1F700C0000083E30E94C5
S1130300BD0091E29A95F1F7000082E30E94BD00DE
S113031081E28A95F1F7000088E20E94BD0091E233
S11303209A95F1F7000081E00E94BD0083EF91E00F
S11303300197F1F700C0000082E00E94BD0083EF46
S113034091E00197F1F700C000008CE00E94BD002D
S113035091E29A95F1F700000895E2EAF0E08681CF
S113036090E0099664E670E00E947A058683089519
S1130370CF93DF93CDB7DEB765970FB6F894DEBFA2
S11303800FBECDBF78940E94550104E122E330E012
S113039045E060E082EA90E00E94360508E222E34C
S11303A030E047E063E0CE0101960E9436050CE39D
S11303B022E330E046E063E0CE0108960E94360571
S11303C0E12C0DEA11E020E042E063E0CE010F965B
S11303D00E949C0040E062E083E00E94270262E009
S11303E083E00E94B902CE010F960E9449008FE972
S11303F09FE00197F1F700C00000F5CF1F920F9224
S11304000FB60F9211242F933F934F935F936F93E3
S11304107F938F939F93AF93BF93EF93FF93E09159
S11304207800F0917900309709F00995FF91EF91E8
S1130430BF91AF919F918F917F916F915F914F91F8
S11304403F912F910F900FBE0F901F9018958430FD
S113045010F5683010F5423010F5E82FF0E0EE0F9B
S1130460FF1FE059FF4F0190F081E02D208181E0D2
S113047090E0062E02C0880F991F0A94E2F750E01C
S113048002C0440F551F6A95E2F780958223482BDA
S1130490408380E0089581E0089581E0089581E03B
S11304A00895843000F5683000F5E82FF0E0EE0F91
S11304B0FF1FE05AFF4F0190F081E02D208181E081
S11304C090E0062E02C0880F991F0A94E2F750E0CC
S11304D002C0440F551F6A95E2F780958223482B8A
S11304E0408380E0089581E0089581E00895843098
S11304F0B8F46830B8F4E82FF0E0EE0FFF1FE05ACC
S1130500FF4F0190F081E02D208181E090E002C056
S1130510880F991F6A95E2F78227808380E0089507
S113052081E0089581E008958430F8F46830F8F4A7
S1130530E82FF0E0EE0FFF1FE859FF4F0190F08124
S1130540E02D408181E090E09C01062E02C0220F44
S1130550331F0A94E2F7842F90E08223932302C08E
S1130560959587956A95E2F708958FEF08958FEF33
S11305700895843050F590E0FC01EE0FFF1FE05920
S1130580FF4F0190F081E02D208141E050E0062EE4
S113059002C0440F551F0A94E2F730E024233523A8
S11305A002C0359527956A95E2F72130310579F037
S11305B0880F991FFC01E05AFF4F0190F081E02D54
S11305C08081482B408380E0089581E0089581E094
S11305D008951F920F920FB60F9211242F933F93F9
S11305E04F935F936F937F938F939F93AF93BF9337
S11305F0EF93FF93E0917E00F0917F000995FF91C6
S1130600EF91BF91AF919F918F917F916F915F9186
S11306104F913F912F910F900FBE0F901F901895FF
S11306201F920F920FB60F9211242F933F934F9363
S11306305F936F937F938F939F93AF93BF93EF9346
S1130640FF93E0917C00F0917D000995FF91EF917B
S1130650BF91AF919F918F917F916F915F914F91D6
S11306603F912F910F900FBE0F901F9018951F92DE
S11306700F920FB60F9211242F933F934F935F93D2
S11306806F937F938F939F93AF93BF93EF93FF9356
S1130690E0917A00F0917B000995FF91EF91BF9171
S11306A0AF919F918F917F916F915F914F913F9106
S11306B02F910F900FBE0F901F901895813069F005
S11306C028F0823089F08330B1F01BC083B78F7B70
S11306D083BF83B7877F83BF14C083B7806483BF1E
S11306E083B7877F83BF0DC083B78F7B83BF83B7F7
S11306F0886083BF06C083B7806483BF83B7886084
S113070083BF83B7887F682B63BF83B7242F21708F
S113071030E022953295307F3227207F32278F7E3A
S1130720282B23BF83B7427050E055954795440F5B
S1130730551F42955295507F5427407F54278F7DF3
S1130740482B43BF089589B7826089BF08950097F5
S113075021F0909381008093800008958CBF0895C8
S11307601F920F920FB60F9211242F933F934F9322
S11307705F936F937F938F939F93AF93BF93EF9305
S1130780FF93E0918200F0918300309709F009957E
S1130790FF91EF91BF91AF919F918F917F916F9155
S11307A05F914F913F912F910F900FBE0F901F902B
S11307B018951F920F920FB60F9211242F933F9307
S11307C04F935F936F937F938F939F93AF93BF9355
S11307D0EF93FF93E0918000F0918100309709F04E
S11307E00995FF91EF91BF91AF919F918F917F9167
S11307F06F915F914F913F912F910F900FBE0F908A
S11308001F9018951F920F920FB60F9211242F93D9
S11308103F934F935F936F937F938F939F93AF9384
S1130820BF93EF93FF93E0918600F0918700309798
S113083009F00995FF91EF91BF91AF919F918F912D
S11308407F916F915F914F913F912F910F900FBEC8
S11308500F901F9018951F920F920FB60F921124AC
S11308602F933F934F935F936F937F938F939F93B4
S1130870AF93BF93EF93FF93E0918400F0918500D1
S1130880309709F00995FF91EF91BF91AF919F9136
S11308908F917F916F915F914F913F912F910F9025
S11308A00FBE0F901F9018951F920F920FB60F92C4
S11308B011242F933F934F935F936F937F938F9361
S11308C09F93AF93BF93EF93FF93E0918800F091D0
S11308D08900309709F00995FF91EF91BF91AF918D
S11308E09F918F917F916F915F914F913F912F9144
S11308F00F900FBE0F901F9018951F920F920FB676
S11309000F9211242F933F934F935F936F937F9391
S11309108F939F93AF93BF93EF93FF93E0918A00DC
S1130920F0918B00309709F00995FF91EF91BF91F9
S1130930AF919F918F917F916F915F914F913F9173
S11309402F910F900FBE0F901F901895E0918D007E
S1130950EA3060F4EF5FE0938D00F0E0EE0FFF1FEC
S1130960E257FF4F9183808382E00895FC018081E8
S1130970918101978032934010F081E0089580E0E6
S11309800895EF92FF921F93CF93DF9310E051C02D
S1130990C12FD0E0FE01EE0FFF1FE257FF4F019081
S11309A0F081E02D6081718188E893E10E94660501
S11309B07B01828193816817790771F46581848151
S11309C00E947702FE01EE0FFF1FE257FF4F0190D6
S11309D0F081E02D13821282FE01EE0FFF1FE25719
S11309E0FF4F0190F081E02D4281538186818E9DDD
S11309F090018F9D300D11243695279536952795B6
S1130A00ABE7B4E10E948E05969587954817590780
S1130A1021F4658184810E947702CC0FDD1FC257C7
S1130A20DF4FE881F98182819381019693838283E8
S1130A301F5F80918D00811708F0AACFDF91CF91BD
S1130A401F91FF90EF90089540E062E082E00E94E1
S1130A505E030E94A30388EC0E94AE0381EC94E041
S1130A600E94A70381E080938C000895CF92DF92C7
S1130A70FF920F931F93CF93DF93EC01162FF42E65
S1130A80690180918C00811102C00E9424051C839D
S1130A900E83D982C882FD821B821A8241E06F2DA7
S1130AA0812F0E942702CE010E94A604823031F4D5
S1130AB041E06D818C810E94510282E0DF91CF91EF
S1130AC01F910F91FF90DF90CF900895AA1BBB1B3D
S1130AD051E107C0AA1FBB1FA617B70710F0A61B3A
S1130AE0B70B881F991F5A95A9F780959095BC015B
S1130AF0CD01089597FB072E16F4009407D077FDD7
S1130B0009D00E94660507FC05D03EF490958195B6
S1130B109F4F0895709561957F4F0895A29FB001EE
S1130B20B39FC001A39F700D811D1124911DB29F1D
S1110B30700D811D1124911D0895F894FFCFBE
S1130B3E3B003800350032003900360033003000F7
S10B0B4E3A00370034003100C5
S9030000FC
