S00C0000486F70652E737265638C
S11300000C942A000C943C020C9463020C948A0213
S11300100C9447000C9447000C9455030C94030370
S11300200C942C030C94DA020C94B1020C94470047
S11300300C9447000C9447000C9447000C94470020
S11300400C9447000C9447000C9447000C94470010
S11300500C94470011241FBECFE5D8E0DEBFCDBF0E
S113006010E0A0E6B0E0E0E9F7E002C005900D92F0
S1130070A238B107D9F720E0A2E8B0E001C01D9290
S1130080A239B207E1F70E9469010C94C6030C94EB
S11300900000CF93C82F40E061E083E00E94D901C3
S11300A040E060E083E00E94D9016C2F82E00E946E
S11300B0FF0141E062E083E00E94D90183EF91E017
S11300C00197F1F700C0000040E062E083E00E9485
S11300D0D90183EF91E00197F1F700C00000CF91BF
S11300E00895CF93C82F40E061E083E00E94D901D6
S11300F041E060E083E00E94D9016C2F82E00E941D
S1130100FF0141E062E083E00E94D90183EF91E0C6
S11301100197F1F700C0000040E062E083E00E9434
S1130120D90183EF91E00197F1F700C00000CF916E
S1130130089541E060E083E00E94A20141E062E0B2
S113014083E00E94A20141E061E083E00E94A201F9
S11301506FEF82E00E94CC0185EA9EE00197F1F7FF
S113016000C0000088E30E94490091E29A95F1F7EB
S113017000008EE00E94490081E28A95F1F70000B8
S113018081E00E94490083EF91E00197F1F700C0FC
S1130190000082E00E94490083EF91E00197F1F7AB
S11301A000C000000895181614F40E947100089508
S11301B00F931F93CF938C01C0E003C0CF5F0E94C5
S11301C0D300F801EC0FF11D80818111F7CFCF919D
S11301D01F910F910895813039F4603168F480E8FB
S11301E0860F0E9449000895823031F4603120F472
S11301F080EC860F0E94490008951F93CF93DF93EC
S1130200CDB7DEB72A970FB6F894DEBF0FBECDBFC9
S1130210AC01892B91F580E30E94710042C09A01E0
S1130220ADECBCEC0E94B70396958795969587959F
S1130230969587959C01220F331F880F991F880F6D
S1130240991F880F991F820F931F9A01281B390B3E
S1130250C901805DE1E0F0E0EC0FFD1FE10FF11D4D
S113026080839A010E94B703AC0156954795569531
S11302704795569547951F5F01C010E041155105FC
S113028071F60DC0E12FF0E0319781E090E08C0F22
S11302909D1FE80FF91F80810E94710011501111F8
S11302A0F1CF2A960FB6F894DEBF0FBECDBFDF9113
S11302B0CF911F910895CF93DF93D82FC0E004C04E
S11302C080E20E94D300CF5FCD17D0F3DF91CF91AE
S11302D008950E94990040E065E080E00E94A20138
S11302E065E080E00E940C0262E080E00E947E03F0
S11302F00E94B30382E790E00E94D80060E082E0AD
S11303000E94EB008DE790E00E94D800809160008D
S1130310909161000E94FD008091600090916100C5
S11303200197909361008093600081E00E945B01DB
S11303302FE38DE093E0215080409040E1F700C02E
S11303400000DCCF843010F5683010F5423010F531
S1130350E82FF0E0EE0FFF1FE659FF4F0190F08108
S1130360E02D208181E090E0062E02C0880F991FC5
S11303700A94E2F750E002C0440F551F6A95E2F771
S113038080958223482B408380E0089581E008957E
S113039081E0089581E00895843050F4E82FF0E07E
S11303A0EE0FFF1FE659FF4F0190F081E02D6083AF
S11303B00895843000F5683000F5E82FF0E0EE0F82
S11303C0FF1FEE59FF4F0190F081E02D208181E065
S11303D090E0062E02C0880F991F0A94E2F750E0BD
S11303E002C0440F551F6A95E2F780958223482B7B
S11303F0408380E0089581E0089581E00895843089
S113040050F4E82FF0E0EE0FFF1FEE59FF4F01907C
S1130410F081E02D60830895843050F590E0FC0174
S1130420EE0FFF1FE659FF4F0190F081E02D208170
S113043041E050E0062E02C0440F551F0A94E2F733
S113044030E02423352302C0359527956A95E2F7D9
S11304502130310579F0880F991FFC01EE59FF4FC7
S11304600190F081E02D8081482B408380E0089545
S113047081E0089581E008951F920F920FB60F92C4
S113048011242F933F934F935F936F937F938F9395
S11304909F93AF93BF93EF93FF93E0918600F09106
S11304A087000995FF91EF91BF91AF919F918F9133
S11304B07F916F915F914F913F912F910F900FBE5C
S11304C00F901F9018951F920F920FB60F92112440
S11304D02F933F934F935F936F937F938F939F9348
S11304E0AF93BF93EF93FF93E0918400F091850065
S11304F00995FF91EF91BF91AF919F918F917F915A
S11305006F915F914F913F912F910F900FBE0F907C
S11305101F9018951F920F920FB60F9211242F93CC
S11305203F934F935F936F937F938F939F93AF9377
S1130530BF93EF93FF93E0918200F09183000995BC
S1130540FF91EF91BF91AF919F918F917F916F91A7
S11305505F914F913F912F910F900FBE0F901F907D
S113056018951F920F920FB60F9211242F933F9359
S11305704F935F936F937F938F939F93AF93BF93A7
S1130580EF93FF93E0919000F0919100309709F080
S11305900995FF91EF91BF91AF919F918F917F91B9
S11305A06F915F914F913F912F910F900FBE0F90DC
S11305B01F9018951F920F920FB60F9211242F932C
S11305C03F934F935F936F937F938F939F93AF93D7
S11305D0BF93EF93FF93E0918E00F0918F003097DB
S11305E009F00995FF91EF91BF91AF919F918F9180
S11305F07F916F915F914F913F912F910F900FBE1B
S11306000F901F9018951F920F920FB60F921124FE
S11306102F933F934F935F936F937F938F939F9306
S1130620AF93BF93EF93FF93E0918C00F0918D0013
S1130630309709F00995FF91EF91BF91AF919F9188
S11306408F917F916F915F914F913F912F910F9077
S11306500FBE0F901F9018951F920F920FB60F9216
S113066011242F933F934F935F936F937F938F93B3
S11306709F93AF93BF93EF93FF93E0918A00F09120
S11306808B00309709F00995FF91EF91BF91AF91DD
S11306909F918F917F916F915F914F913F912F9196
S11306A00F900FBE0F901F9018951F920F920FB6C8
S11306B00F9211242F933F934F935F936F937F93E4
S11306C08F939F93AF93BF93EF93FF93E091880031
S11306D0F0918900309709F00995FF91EF91BF914E
S11306E0AF919F918F917F916F915F914F913F91C6
S11306F02F910F900FBE0F901F901895813069F0C5
S113070028F0823089F08330B1F01BC083B78F7B2F
S113071083BF83B7877F83BF14C083B7806483BFDD
S113072083B7877F83BF0DC083B78F7B83BF83B7B6
S1130730886083BF06C083B7806483BF83B7886043
S113074083BF83B78E7F962F9170892B83BF83B726
S11307508D7F962F9270892B83BF83B78B7F6470B4
S1130760682B63BF089589B7816089BF0895A29FEC
S1130770B001B39FC001A39F700D811D1124911D71
S1130780B29F700D811D1124911D0895F894FFCF1F
S113079069003B003800350032003A00370034006D
S11307A0310035202B2036203D203F3F004C4F4C5C
S10507B0200023
S9030000FC
