S00C0000486F70652E737265638C
S11300000C942A000C94AB030C94D2030C94F903C3
S11300100C9447000C9447000C94C4040C94720490
S11300200C949B040C9449040C9420040C944700F5
S11300300C9447000C9447000C9447000C94470020
S11300400C940D030C9447000C9447000C94470047
S11300500C94470011241FBECFE5D8E0DEBFCDBF0E
S113006010E0A0E6B0E0ECEFF9E002C005900D92DC
S1130070A438B107D9F720E0A4E8B0E001C01D928C
S1130080A839B207E1F70E94D7020C94FC040C943F
S11300900000CF93DF93EC018C81813081F028F054
S11300A08230F9F08330A1F144C06E818D810E94C9
S11300B08603988189133DC081E08C833AC06E81A8
S11300C08D810E9486039881891309C082E08C8304
S11300D0898181112EC0EA81FB8109952AC01C8285
S11300E028C06E818D810E948603988189130DC07A
S11300F08981813019F4EA81FB81099583E294EFC7
S11301000197F1F700C0000014C083E08C8311C094
S11301106E818D810E9486039881891741F01C822B
S11301208981823031F4EA81FB81099502C082E041
S11301308C83DF91CF910895CF92DF92EF92FF925B
S11301400F931F93CF93DF93EC01D62EF42EC22E80
S113015040E06F2D8D2D0E9436031B830A83C982D4
S1130160DD82FE821C82E882DF91CF911F910F9184
S1130170FF90EF90DF90CF900895CF93C82F40E089
S113018065E082E00E94600341E064E082E00E9456
S113019060034C2F407150E0559547955595479510
S11301A0559547955595479560E082E00E94600318
S11301B04C2F407250E05595479555954795559568
S11301C04795559547955595479561E082E00E947E
S11301D060034C2F407450E0042E452F000C441F44
S11301E0550B000C441F551F62E082E00E9460031F
S11301F04C2F441F4427441F63E082E00E946003A5
S113020041E066E082E00E94600383EF91E00197A1
S1130210F1F700C0000040E066E082E00E94600365
S113022083EF91E00197F1F700C000004C2F41707B
S113023060E082E00E9460034C2F427050E05595CC
S1130240479561E082E00E9460034C2F447050E0C7
S1130250559547955595479562E082E00E94600365
S1130260C8704C2F50E05595479555954795559531
S1130270479563E082E00E94600341E066E082E02B
S11302800E94600383EF91E00197F1F700C0000042
S113029040E066E082E00E94600383EF91E0019712
S11302A0F1F700C00000CF910895CF93C82F40E02C
S11302B065E082E00E94600340E064E082E00E9426
S11302C060034C2F407150E05595479555954795DF
S11302D0559547955595479560E082E00E946003E7
S11302E04C2F407250E05595479555954795559537
S11302F04795559547955595479561E082E00E944D
S113030060034C2F407450E0042E452F000C441F12
S1130310550B000C441F551F62E082E00E946003ED
S11303204C2F441F4427441F63E082E00E94600373
S113033041E066E082E00E94600383EF91E0019770
S1130340F1F700C0000040E066E082E00E94600334
S113035083EF91E00197F1F700C000004C2F41704A
S113036060E082E00E9460034C2F427050E055959B
S1130370479561E082E00E9460034C2F447050E096
S1130380559547955595479562E082E00E94600334
S1130390C8704C2F50E05595479555954795559500
S11303A0479563E082E00E94600341E066E082E0FA
S11303B00E94600383EF91E00197F1F700C0000011
S11303C040E066E082E00E94600383EF91E00197E1
S11303D0F1F700C00000CF91089541E064E082E0AD
S11303E00E94360341E066E082E00E94360341E069
S11303F065E082E00E94360341E060E082E00E9412
S1130400360341E061E082E00E94360341E062E0AD
S113041082E00E94360341E063E082E00E943603FA
S113042085EA9EE00197F1F700C0000083E30E9493
S1130430550191E29A95F1F7000082E30E9455017B
S113044081E28A95F1F7000088E20E94550191E269
S11304509A95F1F7000081E00E94550183EF91E045
S11304600197F1F700C0000082E00E94550183EF7C
S113047091E00197F1F700C000008CE00E94550163
S113048091E29A95F1F700000895181614F40E9469
S1130490BD0008950F931F93CF938C01C0E003C058
S11304A0CF5F0E944502F801EC0FF11D808181119C
S11304B0F7CFCF911F910F910895813039F46031B6
S11304C068F480E8860F0E9455010895823031F463
S11304D0603120F480EC860F0E94550108951F932B
S11304E0CF93DF93CDB7DEB72A970FB6F894DEBF6C
S11304F00FBECDBFAC01892B91F580E30E94BD00F6
S113050042C09A01ADECBCEC0E94ED04969587952F
S113051096958795969587959C01220F331F880F92
S1130520991F880F991F880F991F820F931F9A0193
S1130530281B390BC901805DE1E0F0E0EC0FFD1FE1
S1130540E10FF11D80839A010E94ED04AC015695E0
S1130550479556954795569547951F5F01C010E0FE
S11305604115510571F60DC0E12FF0E0319781E09E
S113057090E08C0F9D1FE80FF91F80810E94BD0041
S113058011501111F1CF2A960FB6F894DEBF0FBEA9
S1130590CDBFDF91CF911F910895809184009091F8
S11305A08500019690938500809384000895CF93ED
S11305B0DF93CDB7DEB760970FB6F894DEBF0FBEFA
S11305C0CDBF0E94ED0188E790E00E944A02E12C31
S11305D00DEC12E020E042E060E0CE0101960E94C2
S11305E09C00EE24E39422E042E063E0CE0109960D
S11305F00E949C00CE0101960E944900CE010996FA
S11306000E94490060E082E00E945D0280918400C3
S1130610909185000E946F02EDCF1F920F920FB64A
S11306200F9211242F933F934F935F936F937F9374
S11306308F939F93AF93BF93EF93FF93E0918600C3
S1130640F0918700309709F00995FF91EF91BF91E0
S1130650AF919F918F917F916F915F914F913F9156
S11306602F910F900FBE0F901F901895843010F5A6
S1130670683010F5423010F5E82FF0E0EE0FFF1F60
S1130680E059FF4F0190F081E02D208181E090E05E
S1130690062E02C0880F991F0A94E2F750E002C0A8
S11306A0440F551F6A95E2F780958223482B4083B7
S11306B080E0089581E0089581E0089581E008953F
S11306C0843000F5683000F5E82FF0E0EE0FFF1FEE
S11306D0E05AFF4F0190F081E02D208181E090E00D
S11306E0062E02C0880F991F0A94E2F750E002C058
S11306F0440F551F6A95E2F780958223482B408367
S113070080E0089581E0089581E008958430F8F44C
S11307106830F8F4E82FF0E0EE0FFF1FE859FF4FC0
S11307200190F081E02D408181E090E09C01062E53
S113073002C0220F331F0A94E2F7842F90E0822331
S1130740932302C0959587956A95E2F708958FEFF4
S113075008958FEF08951F920F920FB60F921124F0
S11307602F933F934F935F936F937F938F939F93B5
S1130770AF93BF93EF93FF93E0918C00F0918D00C2
S11307800995FF91EF91BF91AF919F918F917F91C7
S11307906F915F914F913F912F910F900FBE0F90EA
S11307A01F9018951F920F920FB60F9211242F933A
S11307B03F934F935F936F937F938F939F93AF93E5
S11307C0BF93EF93FF93E0918A00F0918B0009951A
S11307D0FF91EF91BF91AF919F918F917F916F9115
S11307E05F914F913F912F910F900FBE0F901F90EB
S11307F018951F920F920FB60F9211242F933F93C7
S11308004F935F936F937F938F939F93AF93BF9314
S1130810EF93FF93E0918800F09189000995FF918F
S1130820EF91BF91AF919F918F917F916F915F9164
S11308304F913F912F910F900FBE0F901F901895DD
S11308401F920F920FB60F9211242F933F934F9341
S11308505F936F937F938F939F93AF93BF93EF9324
S1130860FF93E0919600F0919700309709F0099575
S1130870FF91EF91BF91AF919F918F917F916F9174
S11308805F914F913F912F910F900FBE0F901F904A
S113089018951F920F920FB60F9211242F933F9326
S11308A04F935F936F937F938F939F93AF93BF9374
S11308B0EF93FF93E0919400F0919500309709F045
S11308C00995FF91EF91BF91AF919F918F917F9186
S11308D06F915F914F913F912F910F900FBE0F90A9
S11308E01F9018951F920F920FB60F9211242F93F9
S11308F03F934F935F936F937F938F939F93AF93A4
S1130900BF93EF93FF93E0919200F091930030979F
S113091009F00995FF91EF91BF91AF919F918F914C
S11309207F916F915F914F913F912F910F900FBEE7
S11309300F901F9018951F920F920FB60F921124CB
S11309402F933F934F935F936F937F938F939F93D3
S1130950AF93BF93EF93FF93E0919000F0919100D8
S1130960309709F00995FF91EF91BF91AF919F9155
S11309708F917F916F915F914F913F912F910F9044
S11309800FBE0F901F9018951F920F920FB60F92E3
S113099011242F933F934F935F936F937F938F9380
S11309A09F93AF93BF93EF93FF93E0918E00F091E9
S11309B08F00309709F00995FF91EF91BF91AF91A6
S11309C09F918F917F916F915F914F913F912F9163
S11309D00F900FBE0F901F901895A29FB001B39F68
S11309E0C001A39F700D811D1124911DB29F700D34
S10F09F0811D1124911D0895F894FFCF7F
S11309FC3B0038003500320039003600330030003B
S1130A0C3A003700340031004E4F4620434C4943E2
S1070A1C4B53000034
S9030000FC
