:100000000C942A000C94F5010C941C020C944302ED
:100010000C9447000C9447000C9447000C94370351
:100020000C94E5020C940E030C94BC020C94930205
:100030000C946A020C9447000C9447000C944700FF
:100040000C9447000C9447000C9447000C94470014
:100050000C94470011241FBECFE5D8E0DEBFCDBF12
:1000600010E0A0E6B0E0E4ECF6E002C005900D92EE
:10007000A037B107D9F720E0A0E7B0E001C01D929A
:10008000A238B207E1F70E9466000C9460030C945A
:10009000000041E065E080E00E94D6002FE986E89C
:1000A00091E0215080409040E1F700C0000040E026
:1000B00065E080E00E94D6002FE986E891E02150BB
:1000C00080409040E1F700C000000895CF93DF9397
:1000D000CDB7DEB72C970FB6F894DEBF0FBECDBFFD
:1000E00041E065E080E00E94AC0041E066E082E033
:1000F0000E94AC00198221E02A8389E490E09C836D
:100100008B832D8322E02E8398878F83298723E09A
:100110002A879C878B87CE0101960E94DF01CE0142
:1001200005960E94DF01CE0109960E94DF01811130
:1001300005C041E066E082E00E94D60062E083E014
:100140000E94FC0063E083E00E94FC0062E081E02A
:100150000E94FC007894FFCF843010F5683010F5D1
:10016000423010F5E82FF0E0EE0FFF1FE859FF4F87
:100170000190F081E02D208181E090E0062E02C008
:10018000880F991F0A94E2F750E002C0440F551FF0
:100190006A95E2F780958223482B408380E008959A
:1001A00081E0089581E0089581E00895843000F5AC
:1001B000683000F5E82FF0E0EE0FFF1FE05AFF4F28
:1001C0000190F081E02D208181E090E0062E02C0B8
:1001D000880F991F0A94E2F750E002C0440F551FA0
:1001E0006A95E2F780958223482B408380E008954A
:1001F00081E0089581E00895843050F590E0FC019D
:10020000EE0FFF1FE859FF4F0190F081E02D208194
:1002100041E050E0062E02C0440F551F0A94E2F759
:1002200030E02423352302C0359527956A95E2F7FF
:100230002130310579F0880F991FFC01E05AFF4FFA
:100240000190F081E02D8081482B408380E008956B
:1002500081E0089581E00895FC0180818430D0F52B
:1002600081818630C8F58BB780648BBF81B38B7F6B
:1002700081BB8181813071F028F0823099F0833028
:10028000C9F020C085B78E7F85BF85B78D7F85BFBC
:1002900080E019C085B7816085BF85B78D7F85BF38
:1002A00080E011C085B78E7F85BF85B7826085BF2E
:1002B00080E009C085B7816085BF85B7826085BF52
:1002C00080E001C081E0228133813093750020936A
:1002D0007400089581E0089581E00895FC01808113
:1002E0008430E8F581818630E0F58BB780688BBF7C
:1002F00081B3877F81BB8181813071F028F08230AA
:1003000099F08330C9F020C085B78B7F85BF85B752
:10031000877F85BF80E019C085B7846085BF85B7BA
:10032000877F85BF80E011C085B78B7F85BF85B78C
:10033000886085BF80E009C085B7846085BF85B7C8
:10034000886085BF80E001C081E022813381211572
:10035000310541F03093730020937200089581E0DD
:10036000089581E00895FC018081843020F5818129
:10037000863018F58BB780628BBF87B38B7F87BBC6
:100380008181823019F0833031F00AC084B78F7BCD
:1003900084BF80E006C084B7806484BF80E001C071
:1003A00081E0228133812115310541F030937100C4
:1003B00020937000089581E0089581E00895FC0184
:1003C0009081911104C0CF010E942C0108959130B9
:1003D00021F4CF010E946E010895923021F4CF01E3
:1003E0000E94B301089580E008951F920F920FB606
:1003F0000F9211242F933F934F935F936F937F93AB
:100400008F939F93AF93BF93EF93FF93E09174000B
:10041000F09175000995FF91EF91BF91AF919F9178
:100420008F917F916F915F914F913F912F910F909D
:100430000FBE0F901F9018951F920F920FB60F923C
:1004400011242F933F934F935F936F937F938F93D9
:100450009F93AF93BF93EF93FF93E0917200F0915E
:1004600073000995FF91EF91BF91AF919F918F918B
:100470007F916F915F914F913F912F910F900FBEA0
:100480000F901F9018951F920F920FB60F92112484
:100490002F933F934F935F936F937F938F939F938C
:1004A000AF93BF93EF93FF93E0917000F0917100D1
:1004B0000995FF91EF91BF91AF919F918F917F919E
:1004C0006F915F914F913F912F910F900FBE0F90C1
:1004D0001F9018951F920F920FB60F9211242F9311
:1004E0003F934F935F936F937F938F939F93AF93BC
:1004F000BF93EF93FF93E0918000F09181003097DC
:1005000009F00995FF91EF91BF91AF919F918F9164
:100510007F916F915F914F913F912F910F900FBEFF
:100520000F901F9018951F920F920FB60F921124E3
:100530002F933F934F935F936F937F938F939F93EB
:10054000AF93BF93EF93FF93E0917E00F0917F0014
:10055000309709F00995FF91EF91BF91AF919F916D
:100560008F917F916F915F914F913F912F910F905C
:100570000FBE0F901F9018951F920F920FB60F92FB
:1005800011242F933F934F935F936F937F938F9398
:100590009F93AF93BF93EF93FF93E0917C00F09113
:1005A0007D00309709F00995FF91EF91BF91AF91D0
:1005B0009F918F917F916F915F914F913F912F917B
:1005C0000F900FBE0F901F9018951F920F920FB6AD
:1005D0000F9211242F933F934F935F936F937F93C9
:1005E0008F939F93AF93BF93EF93FF93E0917A0024
:1005F000F0917B00309709F00995FF91EF91BF9141
:10060000AF919F918F917F916F915F914F913F91AA
:100610002F910F900FBE0F901F9018951F920F9261
:100620000FB60F9211242F933F934F935F936F93C5
:100630007F938F939F93AF93BF93EF93FF93E0913B
:100640007800F0917900309709F00995FF91EF91CA
:10065000BF91AF919F918F917F916F915F914F91DA
:100660003F912F910F900FBE0F901F9018951F92E2
:100670000F920FB60F9211242F933F934F935F93D6
:100680006F937F938F939F93AF93BF93EF93FF935A
:10069000E0917600F0917700309709F00995FF918D
:1006A000EF91BF91AF919F918F917F916F915F91EA
:1006B0004F913F912F910F900FBE0F901F90189563
:0406C000F894FFCFDC
:1006C4003B003800350032003A0037003400310076
:00000001FF
