S00C0000486F70652E737265638C
S11300000C942A000C9446030C946D030C949403F2
S11300100C9447000C9447000C945F040C940D045A
S11300200C9436040C94E4030C94BB030C94470026
S11300300C9447000C9447000C9447000C94470020
S11300400C94B3020C9447000C9447000C944700A2
S11300500C94470011241FBECFE5D8E0DEBFCDBF0E
S113006010E0A0E6B0E0ECEDFCE002C005900D92DB
S1130070AA38B107D9F720E0AAE8B0E001C01D9280
S1130080AD39B207E1F70E94A8010C946C060C94F8
S11300900000CF93C82F40E061E083E00E94130387
S11300A040E060E083E00E9413036C2F82E00E9432
S11300B0390341E062E083E00E94130383EF91E09F
S11300C00197F1F700C0000040E062E083E00E9485
S11300D0130383EF91E00197F1F700C00000CF9183
S11300E00895CF93C82F40E061E083E00E9413039A
S11300F041E060E083E00E9413036C2F82E00E94E1
S1130100390341E062E083E00E94130383EF91E04E
S11301100197F1F700C0000040E062E083E00E9434
S1130120130383EF91E00197F1F700C00000CF9132
S1130130089541E060E083E00E94DC0241E062E077
S113014083E00E94DC0241E061E083E00E94DC0283
S11301506FEF82E00E94060385EA9EE00197F1F7C3
S113016000C0000088E30E94490091E29A95F1F7EB
S113017000008EE00E94490081E28A95F1F70000B8
S113018081E00E94490083EF91E00197F1F700C0FC
S1130190000082E00E94490083EF91E00197F1F7AB
S11301A000C000000895181614F40E947100089508
S11301B00F931F93CF938C01C0E003C0CF5F0E94C5
S11301C0D300F801EC0FF11D80818111F7CFCF919D
S11301D01F910F910895813039F4603168F480E8FB
S11301E0860F0E9449000895823031F4603120F472
S11301F080EC860F0E94490008951F93CF93DF93EC
S1130200CDB7DEB72A970FB6F894DEBF0FBECDBFC9
S1130210AC01892B91F580E30E94710042C09A01E0
S1130220ADECBCEC0E945D069695879596958795F6
S1130230969587959C01220F331F880F991F880F6D
S1130240991F880F991F820F931F9A01281B390B3E
S1130250C901805DE1E0F0E0EC0FFD1FE10FF11D4D
S113026080839A010E945D06AC0156954795569588
S11302704795569547951F5F01C010E041155105FC
S113028071F60DC0E12FF0E0319781E090E08C0F22
S11302909D1FE80FF91F80810E94710011501111F8
S11302A0F1CF2A960FB6F894DEBF0FBECDBFDF9113
S11302B0CF911F910895CF93DF93D82FC0E004C04E
S11302C080E20E94D300CF5FCD17D0F3DF91CF91AE
S11302D00895809360000895CF930E949E02C82FD2
S11302E0809160000E94A502C130B1F4BC0180E09D
S11302F090E00E94620526EF38E24CE950E40E9447
S1130300F00520E030E040E251E40E94C1040E9484
S11303103305262F972F19C0C330B1F4BC0180E0F8
S113032090E00E9462052AE037ED43E250E40E9427
S1130330F00520E030E040E251E40E94C1040E9454
S11303403305262F972F01C001C0822FCF91089526
S11303500E94990040E062E080E00E94DC0240E0FC
S113036066E080E00E94DC0262E080E00E94880493
S113037086E00E9469010E94BD0481E790E00E942A
S1130380D80043E067E082E00E94E30181E00E943C
S1130390660260E082E00E94EB008DE790E00E943C
S11303A0D8000E946C010E94FD0086E890E00E9443
S11303B0D80081E00E945B0187EA91E60197F1F79A
S11303C000C00000E6CF803108F05FC0683008F05C
S11303D05CC0443008F059C0423009F456C096B1AC
S11303E0906896B997B19E7F582F5170952B97B905
S11303F097B19D7F582F5270952B97B997B19B7FDA
S1130400582F5470952B97B997B1977F582F5870E0
S1130410952B97B997B19F7E8071892B87B987B146
S11304208F7D87B987B1242F217030E00024369561
S113043027950794369527950794322F202D8F7B87
S1130440282B27B927B1942F9270892F90E0959586
S113045087959695982F882797958795922F9F77BC
S1130460892B87B940938A0086B18E7F962F91702D
S1130470892B86B986B18D7F962F9270892B86B988
S113048086B18B7F6470682B66B908958031E8F477
S113049097B19E7F282F2170922B97B997B19D7F9A
S11304A0282F2270922B97B997B19B7F282F247005
S11304B0922B97B997B1977F282F2870922B97B9D1
S11304C097B19F7E8071892B87B90895811104C0EB
S11304D086B18F7D86B90895E0B790E00197BC019D
S11304E061707727660F771F62957295707F762704
S11304F0607F76279E2F9F7D692B60BF90B781FB1D
S1130500442740F950E000245695479507945695A2
S113051047950794542F402D9F7B492B40BF90B79C
S113052082FB222720F930E03695322F2227379597
S11305302795892F8F77282B20BF089580918A00D3
S1130540089586B1806486B908950E9446020E9487
S1130550A102349BFECF24B185B190E0982F882767
S1130560820F911D08951F920F920FB60F921124BE
S11305702F933F934F935F936F937F938F939F93A7
S1130580AF93BF93EF93FF93E0918B00F0918C00B6
S1130590309709F00995FF91EF91BF91AF919F9129
S11305A08F917F916F915F914F913F912F910F9018
S11305B00FBE0F901F901895843010F5683010F519
S11305C0423010F5E82FF0E0EE0FFF1FE759FF4F20
S11305D00190F081E02D208181E090E0062E02C0A0
S11305E0880F991F0A94E2F750E002C0440F551F88
S11305F06A95E2F780958223482B408380E0089532
S113060081E0089581E0089581E00895843050F4F4
S1130610E82FF0E0EE0FFF1FE759FF4F0190F08144
S1130620E02D60830895843000F5683000F5E82FEC
S1130630F0E0EE0FFF1FEF59FF4F0190F081E02D26
S1130640208181E090E0062E02C0880F991F0A9451
S1130650E2F750E002C0440F551F6A95E2F7809517
S11306608223482B408380E0089581E0089581E04F
S11306700895843050F4E82FF0E0EE0FFF1FEF5997
S1130680FF4F0190F081E02D608308951F920F9237
S11306900FB60F9211242F933F934F935F936F9351
S11306A07F938F939F93AF93BF93EF93FF93E091C7
S11306B09100F09192000995FF91EF91BF91AF9154
S11306C09F918F917F916F915F914F913F912F9166
S11306D00F900FBE0F901F9018951F920F920FB698
S11306E00F9211242F933F934F935F936F937F93B4
S11306F08F939F93AF93BF93EF93FF93E0918F00FA
S1130700F09190000995FF91EF91BF91AF919F9166
S11307108F917F916F915F914F913F912F910F90A6
S11307200FBE0F901F9018951F920F920FB60F9245
S113073011242F933F934F935F936F937F938F93E2
S11307409F93AF93BF93EF93FF93E0918D00F0914C
S11307508E000995FF91EF91BF91AF919F918F9179
S11307607F916F915F914F913F912F910F900FBEA9
S11307700F901F9018951F920F920FB60F9211248D
S11307802F933F934F935F936F937F938F939F9395
S1130790AF93BF93EF93FF93E0919B00F0919C0084
S11307A0309709F00995FF91EF91BF91AF919F9117
S11307B08F917F916F915F914F913F912F910F9006
S11307C00FBE0F901F9018951F920F920FB60F92A5
S11307D011242F933F934F935F936F937F938F9342
S11307E09F93AF93BF93EF93FF93E0919900F091A0
S11307F09A00309709F00995FF91EF91BF91AF915D
S11308009F918F917F916F915F914F913F912F9124
S11308100F900FBE0F901F9018951F920F920FB656
S11308200F9211242F933F934F935F936F937F9372
S11308308F939F93AF93BF93EF93FF93E0919700B0
S1130840F0919800309709F00995FF91EF91BF91CD
S1130850AF919F918F917F916F915F914F913F9154
S11308602F910F900FBE0F901F9018951F920F920B
S11308700FB60F9211242F933F934F935F936F936F
S11308807F938F939F93AF93BF93EF93FF93E091E5
S11308909500F0919600309709F00995FF91EF913A
S11308A0BF91AF919F918F917F916F915F914F9184
S11308B03F912F910F900FBE0F901F9018951F928C
S11308C00F920FB60F9211242F933F934F935F9380
S11308D06F937F938F939F93AF93BF93EF93FF9304
S11308E0E0919300F0919400309709F00995FF91FD
S11308F0EF91BF91AF919F918F917F916F915F9194
S11309004F913F912F910F900FBE0F901F9018950C
S1130910813069F028F0823089F08330B1F01BC057
S113092083B78F7B83BF83B7877F83BF14C083B7AD
S1130930806483BF83B7877F83BF0DC083B78F7BFA
S113094083BF83B7886083BF06C083B7806483BFD7
S113095083B7886083BF83B78E7F962F9170892B6E
S113096083BF83B78D7F962F9270892B83BF83B704
S11309708B7F6470682B63BF089589B7816089BFDA
S113098008950E94D5040C94B6050E94AF0558F052
S11309900E94A80540F029F45F3F29F00C949F05BC
S11309A051110C94EA050C94A5050E94C70568F33F
S11309B09923B1F3552391F3951B550BBB27AA2714
S11309C062177307840738F09F5F5F4F220F331F4E
S11309D0441FAA1FA9F335D00E2E3AF0E0E832D016
S11309E091505040E695001CCAF72BD0FE2F29D019
S11309F0660F771F881FBB1F261737074807AB07EB
S1130A00B0E809F0BB0B802DBF01FF2793585F4F5F
S1130A103AF09E3F510578F00C949F050C94EA053A
S1130A205F3FE4F3983ED4F3869577956795B79541
S1130A30F7959F5FC9F7880F911D9695879597F94C
S1130A400895E1E0660F771F881FBB1F62177307C5
S1130A508407BA0720F0621B730B840BBA0BEE1FDA
S1130A6088F7E09508950E94CF0588F09F5798F085
S1130A70B92F9927B751B0F0E1F0660F771F881F9F
S1130A80991F1AF0BA95C9F714C0B13091F00E94B9
S1130A90E905B1E008950C94E905672F782F8827BC
S1130AA0B85F39F0B93FCCF3869577956795B395E0
S1130AB0D9F73EF490958095709561957F4F8F4F4F
S1130AC09F4F0895E89409C097FB3EF49095809554
S1130AD0709561957F4F8F4F9F4F9923A9F0F92F00
S1130AE096E9BB279395F695879577956795B7957E
S1130AF0F111F8CFFAF4BB0F11F460FF1BC06F5F64
S1130B007F4F8F4F9F4F16C0882311F096E911C075
S1130B10772321F09EE8872F762F05C0662371F096
S1130B2096E8862F70E060E02AF09A95660F771FAA
S1130B30881FDAF7880F9695879597F9089597F99E
S1130B409F6780E870E060E008959FEF80EC08956F
S1130B5000240A9416161706180609060895002498
S1130B600A9412161306140605060895092E039412
S1130B70000C11F4882352F0BB0F40F4BF2B11F486
S1130B8060FF04C06F5F7F4F8F4F9F4F089557FDE5
S1130B909058440F551F59F05F3F71F04795880FE7
S1130BA097FB991F61F09F3F79F08795089512167E
S1130BB013061406551FF2CF4695F1DF08C016162A
S1130BC017061806991FF1CF8695710561050894DB
S1130BD00895E894BB2766277727CB0197F90895F2
S1130BE00E9403060C94B6050E94A80538F00E94E2
S1130BF0AF0520F0952311F00C949F050C94A505E6
S1130C0011240C94EA050E94C70570F3959FC1F363
S1130C10950F50E0551F629FF001729FBB27F00DA6
S1130C20B11D639FAA27F00DB11DAA1F649F6627FB
S1130C30B00DA11D661F829F2227B00DA11D621F4A
S1130C40739FB00DA11D621F839FA00D611D221F04
S1130C50749F3327A00D611D231F849F600D211DE8
S1130C60822F762F6A2F11249F5750409AF0F1F06B
S1130C7088234AF0EE0FFF1FBB1F661F771F881FD4
S1130C8091505040A9F79E3F510580F00C949F0568
S1130C900C94EA055F3FE4F3983ED4F38695779588
S1130CA06795B795F795E7959F5FC1F7FE2B880F7A
S1130CB0911D9695879597F90895A29FB001B39FCA
S1130CC0C001A39F700D811D1124911DB29F700D51
S10F0CD0811D1124911D0895F894FFCF9C
S1130CDCFF3B003800350032003A00370034003155
S1130CEC004C6D33352074657374203A0076616C56
S10D0CFC7565203A20006F430000E4
S9030000FC
