S00C0000486F70652E737265638C
S11300000C942A000C9415030C943C030C94630385
S11300100C9447000C9447000C942E040C94DC03BD
S11300200C9405040C94B3030C948A030C944700B9
S11300300C9447000C9447000C9447000C94470020
S11300400C9452020C9447000C9447000C94470003
S11300500C94470011241FBECFE5D8E0DEBFCDBF0E
S113006010E0A0E6B0E0E2E4F9E002C005900D92F1
S1130070A038B107D9F720E0A0E8B0E001C01D9294
S1130080A239B207E1F70E9469010C949F040C9411
S11300900000CF93C82F40E061E083E00E94B202E9
S11300A040E060E083E00E94B2026C2F82E00E9494
S11300B0D80241E062E083E00E94B20283EF91E063
S11300C00197F1F700C0000040E062E083E00E9485
S11300D0B20283EF91E00197F1F700C00000CF91E5
S11300E00895CF93C82F40E061E083E00E94B202FC
S11300F041E060E083E00E94B2026C2F82E00E9443
S1130100D80241E062E083E00E94B20283EF91E012
S11301100197F1F700C0000040E062E083E00E9434
S1130120B20283EF91E00197F1F700C00000CF9194
S1130130089541E060E083E00E947B0241E062E0D8
S113014083E00E947B0241E061E083E00E947B0245
S11301506FEF82E00E94A50285EA9EE00197F1F725
S113016000C0000088E30E94490091E29A95F1F7EB
S113017000008EE00E94490081E28A95F1F70000B8
S113018081E00E94490083EF91E00197F1F700C0FC
S1130190000082E00E94490083EF91E00197F1F7AB
S11301A000C000000895181614F40E947100089508
S11301B00F931F93CF938C01C0E003C0CF5F0E94C5
S11301C0D300F801EC0FF11D80818111F7CFCF919D
S11301D01F910F910895813039F4603168F480E8FB
S11301E0860F0E9449000895823031F4603120F472
S11301F080EC860F0E94490008951F93CF93DF93EC
S1130200CDB7DEB72A970FB6F894DEBF0FBECDBFC9
S1130210AC01892B91F580E30E94710042C09A01E0
S1130220ADECBCEC0E9490049695879596958795C5
S1130230969587959C01220F331F880F991F880F6D
S1130240991F880F991F820F931F9A01281B390B3E
S1130250C901805DE1E0F0E0EC0FFD1FE10FF11D4D
S113026080839A010E949004AC0156954795569557
S11302704795569547951F5F01C010E041155105FC
S113028071F60DC0E12FF0E0319781E090E08C0F22
S11302909D1FE80FF91F80810E94710011501111F8
S11302A0F1CF2A960FB6F894DEBF0FBECDBFDF9113
S11302B0CF911F910895CF93DF93D82FC0E004C04E
S11302C080E20E94D300CF5FCD17D0F3DF91CF91AE
S11302D008950E94990040E065E080E00E947B025E
S11302E065E080E00E94E50262E080E00E9457043D
S11302F00E948C0480E790E00E94D80043E063E011
S113030081E00E949E0181E00E94FC010E9444025F
S1130310EC0160E082E00E94EB008BE790E00E9439
S1130320D800CE010E94FD0081E00E945B0187EAB3
S113033091E60197F1F700C00000E8CF803108F0A2
S11303405AC0683008F057C0443008F054C04230F6
S113035009F451C096B1906896B997B19E7F582F11
S11303605170952B97B997B19D7F582F5270952B4B
S113037097B997B19B7F582F5470952B97B997B124
S1130380977F582F5870952B97B997B19F7E80719E
S1130390892B87B987B18F7D87B987B1242F2170C5
S11303A030E00024369527950794369527950794D1
S11303B0322F202D8F7B282B27B987B1427050E034
S11303C0559547955695542F4427579547958F77BC
S11303D0482B47B986B18E7F962F9170892B86B9A9
S11303E086B18D7F962F9270892B86B986B18B7FCB
S11303F06470682B66B90895811104C086B18F7D3D
S113040086B90895E0B790E00197BC016170772741
S1130410660F771F62957295707F7627607F7627C7
S11304209E2F9F7D692B60BF90B781FB442740F9C5
S113043050E00024569547950794569547950794A0
S1130440542F402D9F7B492B40BF90B782FB22271E
S113045020F930E03695322F222737952795892FBA
S11304608F77282B20BF089586B1806486B90895BC
S113047086B1807190E0959587959595879595952A
S113048087959595879508950E9434020E943802B5
S11304908823E1F324B185B190E0982F8827820F57
S11304A0911D08951F920F920FB60F9211242F934E
S11304B03F934F935F936F937F938F939F93AF93E8
S11304C0BF93EF93FF93E0918000F0918100309708
S11304D009F00995FF91EF91BF91AF919F918F9191
S11304E07F916F915F914F913F912F910F900FBE2C
S11304F00F901F901895843010F5683010F5423035
S113050010F5E82FF0E0EE0FFF1FE859FF4F0190C0
S1130510F081E02D208181E090E0062E02C0880F5A
S1130520991F0A94E2F750E002C0440F551F6A95E0
S1130530E2F780958223482B408380E0089581E090
S1130540089581E0089581E00895843050F4E82FFF
S1130550F0E0EE0FFF1FE859FF4F0190F081E02D0E
S113056060830895843000F5683000F5E82FF0E0EA
S1130570EE0FFF1FE05AFF4F0190F081E02D208124
S113058081E090E0062E02C0880F991F0A94E2F7DA
S113059050E002C0440F551F6A95E2F7809582230C
S11305A0482B408380E0089581E0089581E0089518
S11305B0843050F4E82FF0E0EE0FFF1FE05AFF4FB5
S11305C00190F081E02D60830895843050F590E02F
S11305D0FC01EE0FFF1FE859FF4F0190F081E02D61
S11305E0208141E050E0062E02C0440F551F0A94BA
S11305F0E2F730E02423352302C0359527956A9528
S1130600E2F72130310579F0880F991FFC01E05A97
S1130610FF4F0190F081E02D8081482B408380E0E2
S1130620089581E0089581E008951F920F920FB616
S11306300F9211242F933F934F935F936F937F9364
S11306408F939F93AF93BF93EF93FF93E0918600B3
S1130650F09187000995FF91EF91BF91AF919F9120
S11306608F917F916F915F914F913F912F910F9057
S11306700FBE0F901F9018951F920F920FB60F92F6
S113068011242F933F934F935F936F937F938F9393
S11306909F93AF93BF93EF93FF93E0918400F09106
S11306A085000995FF91EF91BF91AF919F918F9133
S11306B07F916F915F914F913F912F910F900FBE5A
S11306C00F901F9018951F920F920FB60F9211243E
S11306D02F933F934F935F936F937F938F939F9346
S11306E0AF93BF93EF93FF93E0918200F091830067
S11306F00995FF91EF91BF91AF919F918F917F9158
S11307006F915F914F913F912F910F900FBE0F907A
S11307101F9018951F920F920FB60F9211242F93CA
S11307203F934F935F936F937F938F939F93AF9375
S1130730BF93EF93FF93E0919000F0919100309775
S113074009F00995FF91EF91BF91AF919F918F911E
S11307507F916F915F914F913F912F910F900FBEB9
S11307600F901F9018951F920F920FB60F9211249D
S11307702F933F934F935F936F937F938F939F93A5
S1130780AF93BF93EF93FF93E0918E00F0918F00AE
S1130790309709F00995FF91EF91BF91AF919F9127
S11307A08F917F916F915F914F913F912F910F9016
S11307B00FBE0F901F9018951F920F920FB60F92B5
S11307C011242F933F934F935F936F937F938F9352
S11307D09F93AF93BF93EF93FF93E0918C00F091BD
S11307E08D00309709F00995FF91EF91BF91AF917A
S11307F09F918F917F916F915F914F913F912F9135
S11308000F900FBE0F901F9018951F920F920FB666
S11308100F9211242F933F934F935F936F937F9382
S11308208F939F93AF93BF93EF93FF93E0918A00CD
S1130830F0918B00309709F00995FF91EF91BF91EA
S1130840AF919F918F917F916F915F914F913F9164
S11308502F910F900FBE0F901F9018951F920F921B
S11308600FB60F9211242F933F934F935F936F937F
S11308707F938F939F93AF93BF93EF93FF93E091F5
S11308808800F0918900309709F00995FF91EF9164
S1130890BF91AF919F918F917F916F915F914F9194
S11308A03F912F910F900FBE0F901F90189581309C
S11308B069F028F0823089F08330B1F01BC083B72F
S11308C08F7B83BF83B7877F83BF14C083B7806464
S11308D083BF83B7877F83BF0DC083B78F7B83BFFD
S11308E083B7886083BF06C083B7806483BF83B740
S11308F0886083BF83B78E7F962F9170892B83BFC7
S113090083B78D7F962F9270892B83BF83B78B7F9C
S11309106470682B63BF089589B7816089BF0895A7
S1130920A29FB001B39FC001A39F700D811D11242C
S1130930911DB29F700D811D1124911D0895F8948D
S1050940FFCFE3
S11309423B003800350032003A00370034003100F1
S113095235202B2036203D203F3F004C4F4C2000B9
S9030000FC
