:100000000C942A000C94BA040C94E1040C94080596
:100010000C9447000C9447000C942E060C94DC05BD
:100020000C9405060C94B3050C948A050C944700B7
:100030000C9447000C9447000C9447000C94470024
:100040000C9400040C9447000C9447000C94470057
:100050000C94470011241FBECFE5D8E0DEBFCDBF12
:1000600010E0A0E6B0E0E8E0F0E102C005900D92FB
:10007000A039B107D9F720E0A0E9B0E001C01D9296
:10008000A83AB207E1F70E94A6020C9402080C9469
:100090000000CF93C82F40E065E082E00E94620438
:1000A00041E064E082E00E9462044C2F407150E025
:1000B0005595479555954795559547955595479528
:1000C00060E082E00E9462044C2F407250E055953F
:1000D0004795559547955595479555954795559508
:1000E000479561E082E00E9462044C2F407450E02A
:1000F000042E452F000C441F550B000C441F551FA8
:1001000062E082E00E9462044C2F441F4427441F97
:1001100063E082E00E94620441E066E082E00E94C7
:10012000620483EF91E00197F1F700C0000040E026
:1001300066E082E00E94620483EF91E00197F1F7AC
:1001400000C000004C2F417060E082E00E94620419
:100150004C2F427050E05595479561E082E00E9437
:1001600062044C2F447050E055954795559547953E
:1001700062E082E00E946204C8704C2F50E0559506
:100180004795559547955595479563E082E00E94C0
:10019000620441E066E082E00E94620483EF91E045
:1001A0000197F1F700C0000040E066E082E00E94A5
:1001B000620483EF91E00197F1F700C00000CF9156
:1001C0000895CF93C82F40E065E082E00E9462046A
:1001D00040E064E082E00E9462044C2F407150E0F5
:1001E00055954795559547955595479555954795F7
:1001F00060E082E00E9462044C2F407250E055950E
:1002000047955595479555954795559547955595D6
:10021000479561E082E00E9462044C2F407450E0F8
:10022000042E452F000C441F550B000C441F551F76
:1002300062E082E00E9462044C2F441F4427441F66
:1002400063E082E00E94620441E066E082E00E9496
:10025000620483EF91E00197F1F700C0000040E0F5
:1002600066E082E00E94620483EF91E00197F1F77B
:1002700000C000004C2F417060E082E00E946204E8
:100280004C2F427050E05595479561E082E00E9406
:1002900062044C2F447050E055954795559547950D
:1002A00062E082E00E946204C8704C2F50E05595D5
:1002B0004795559547955595479563E082E00E948F
:1002C000620441E066E082E00E94620483EF91E014
:1002D0000197F1F700C0000040E066E082E00E9474
:1002E000620483EF91E00197F1F700C00000CF9125
:1002F000089541E064E082E00E94290441E066E064
:1003000082E00E94290441E065E082E00E94290425
:1003100041E060E082E00E94290441E061E082E087
:100320000E94290441E062E082E00E94290441E049
:1003300063E082E00E94290485EA9EE00197F1F7DC
:1003400000C0000083E30E94E10091E29A95F1F77A
:10035000000082E30E94E10081E28A95F1F700004B
:1003600088E20E94E10091E29A95F1F7000081E0B5
:100370000E94E10083EF91E00197F1F700C00000D7
:1003800082E00E94E10083EF91E00197F1F700C065
:1003900000008CE00E94E10091E29A95F1F70000E4
:1003A0000895181614F40E94490008950F931F939E
:1003B000CF938C01C0E003C0CF5F0E94D101F80150
:1003C000EC0FF11D80818111F7CFCF911F910F911B
:1003D0000895813039F4603168F480E8860F0E9416
:1003E000E1000895823031F4603120F480EC860F12
:1003F0000E94E10008951F93CF93DF93CDB7DEB73E
:100400002A970FB6F894DEBF0FBECDBFAC01892B83
:1004100091F580E30E94490042C09A01ADECBCEC2A
:100420000E94F3079695879596958795969587955B
:100430009C01220F331F880F991F880F991F880F67
:10044000991F820F931F9A01281B390BC901805DE8
:10045000E1E0F0E0EC0FFD1FE10FF11D80839A0158
:100460000E94F307AC0156954795569547955695CA
:1004700047951F5F01C010E04115510571F60DC091
:10048000E12FF0E0319781E090E08C0F9D1FE80FA5
:10049000F91F80810E94490011501111F1CF2A9655
:1004A0000FB6F894DEBF0FBECDBFDF91CF911F9185
:1004B0000895CF93DF93D82FC0E004C080E20E945C
:1004C000D101CF5FCD17D0F3DF91CF910895809305
:1004D00060000895CF930E94EB03C82F80916000C5
:1004E0000E94F203C130B1F4BC0180E090E00E94B0
:1004F000F80626EF38E24CE950E40E94860720E037
:1005000030E040E251E40E9457060E94C906262FBF
:10051000972F19C0C330B1F4BC0180E090E00E9475
:10052000F80620E030E040E250E40E94860720E038
:1005300030E040E251E40E9457060E94C906262F8F
:10054000972F01C001C0822FCF9108950E94790199
:1005500040E061E081E00E94290460EF83E00E94B6
:10056000530443E067E082E00E94300381E00E9490
:10057000B30386E00E94670289E790E00E94D601FB
:1005800042E065E081E00E942F0560E082E00E9489
:10059000E90185E890E00E94D6010E946A029093EA
:1005A000A7008093A6000E94FB018DE890E00E94C6
:1005B000D60181E00E9459028091900081112EC0E5
:1005C0008091A6009091A7008431910540F460E1EC
:1005D00083E00E94880480E00E9488051FC0449741
:1005E0004497E0F460E283E00E9488048091A600D2
:1005F0009091A7004FEF489F9001499F300D112423
:100600002C5E3341ADECBCEC0E94F30792958295D1
:100610008F7089279F7089270E9488058091A60086
:100620009091A700889720F480919000882339F05A
:1006300081E08093900060EC83E00E94880461E098
:1006400081E00E949504882309F49FCF8091A60041
:100650009091A700889708F098CF1092900095CFBE
:10066000803108F05FC0683008F05CC0443008F0AA
:1006700059C0423009F456C096B1906896B997B106
:100680009E7F582F5170952B97B997B19D7F582F0A
:100690005270952B97B997B19B7F582F5470952B1B
:1006A00097B997B1977F582F5870952B97B997B1F5
:1006B0009F7E8071892B87B987B18F7D87B987B17C
:1006C000242F217030E00024369527950794369525
:1006D00027950794322F202D8F7B282B27B927B100
:1006E000942F9270892F90E0959587959695982FE5
:1006F000882797958795922F9F77892B87B9409365
:10070000910086B18E7F962F9170892B86B986B124
:100710008D7F962F9270892B86B986B18B7F6470FE
:10072000682B66B908958031E8F497B19E7F282F31
:100730002170922B97B997B19D7F282F2270922B11
:1007400097B997B19B7F282F2470922B97B997B1B7
:10075000977F282F2870922B97B997B19F7E807131
:10076000892B87B90895811104C086B18F7D86B920
:100770000895E0B790E00197BC0161707727660F9C
:10078000771F62957295707F7627607F76279E2F00
:100790009F7D692B60BF90B781FB442740F950E0F3
:1007A0000024569547950794569547950794542FDE
:1007B000402D9F7B492B40BF90B782FB222720F919
:1007C00030E03695322F222737952795892F8F775E
:1007D000282B20BF089580919100089586B18064F0
:1007E00086B908950E9493030E94EE03349BFECFC6
:1007F00024B185B190E0982F8827820F911D08952C
:100800001F920F920FB60F9211242F933F934F9385
:100810005F936F937F938F939F93AF93BF93EF9368
:10082000FF93E0919200F0919300309709F00995C1
:10083000FF91EF91BF91AF919F918F917F916F91B8
:100840005F914F913F912F910F900FBE0F901F908E
:100850001895843010F5683010F5423010F5E82F07
:10086000F0E0EE0FFF1FEF58FF4F0190F081E02DF9
:10087000208181E090E0062E02C0880F991F0A9423
:10088000E2F750E002C0440F551F6A95E2F78095E9
:100890008223482B408380E0089581E0089581E021
:1008A000089581E00895843060F4E82FF0E0EE0FC1
:1008B000FF1FEF58FF4F0190F081E02D8081682BE2
:1008C00060830895843000F5683000F5E82FF0E08B
:1008D000EE0FFF1FEF59FF4F0190F081E02D2081B7
:1008E00081E090E0062E02C0880F991F0A94E2F77B
:1008F00050E002C0440F551F6A95E2F780958223AD
:10090000482B408380E0089581E0089581E00895B8
:10091000843050F4E82FF0E0EE0FFF1FEF59FF4F47
:100920000190F081E02D608308958430F8F4683000
:10093000F8F4E82FF0E0EE0FFF1FE759FF4F0190AA
:10094000F081E02D408181E090E09C01062E02C004
:10095000220F331F0A94E2F7842F90E0822393231F
:1009600002C0959587956A95E2F708958FEF0895EF
:100970008FEF08951F920F920FB60F9211242F93AD
:100980003F934F935F936F937F938F939F93AF9317
:10099000BF93EF93FF93E0919800F0919900099530
:1009A000FF91EF91BF91AF919F918F917F916F9147
:1009B0005F914F913F912F910F900FBE0F901F901D
:1009C00018951F920F920FB60F9211242F933F93F9
:1009D0004F935F936F937F938F939F93AF93BF9347
:1009E000EF93FF93E0919600F09197000995FF91A6
:1009F000EF91BF91AF919F918F917F916F915F9197
:100A00004F913F912F910F900FBE0F901F9018950F
:100A10001F920F920FB60F9211242F933F934F9373
:100A20005F936F937F938F939F93AF93BF93EF9356
:100A3000FF93E0919400F09195000995FF91EF915B
:100A4000BF91AF919F918F917F916F915F914F91E6
:100A50003F912F910F900FBE0F901F9018958430EB
:100A600008F055C0443008F052C0683008F04FC05C
:100A700093B7987F962B93BF70E07093A500609317
:100A8000A400813069F028F0823089F08330B1F021
:100A90001BC083B78F7B83BF83B7877F83BF14C09F
:100AA00083B7806483BF83B7877F83BF0DC083B75D
:100AB0008F7B83BF83B7886083BF06C083B78064A2
:100AC00083BF83B7886083BF413069F028F042302C
:100AD00089F04330B1F0089583B78F7E83BF83B729
:100AE0008F7D83BF089583B7806183BF83B78F7D78
:100AF00083BF089583B78F7E83BF83B7806283BF30
:100B0000089583B7806183BF83B7806283BF0895F0
:100B10008CBF08951F920F920FB60F9211242F933E
:100B20003F934F935F936F937F938F939F93AF9375
:100B3000BF93EF93FF93E091A200F091A300309751
:100B400009F00995FF91EF91BF91AF919F918F911E
:100B50007F916F915F914F913F912F910F900FBEB9
:100B60000F901F9018951F920F920FB60F9211249D
:100B70002F933F934F935F936F937F938F939F93A5
:100B8000AF93BF93EF93FF93E091A000F091A1008A
:100B9000309709F00995FF91EF91BF91AF919F9127
:100BA0008F917F916F915F914F913F912F910F9016
:100BB0000FBE0F901F9018951F920F920FB60F92B5
:100BC00011242F933F934F935F936F937F938F9352
:100BD0009F93AF93BF93EF93FF93E0919E00F091AB
:100BE0009F00309709F00995FF91EF91BF91AF9168
:100BF0009F918F917F916F915F914F913F912F9135
:100C00000F900FBE0F901F9018951F920F920FB666
:100C10000F9211242F933F934F935F936F937F9382
:100C20008F939F93AF93BF93EF93FF93E0919C00BB
:100C3000F0919D00309709F00995FF91EF91BF91D8
:100C4000AF919F918F917F916F915F914F913F9164
:100C50002F910F900FBE0F901F9018951F920F921B
:100C60000FB60F9211242F933F934F935F936F937F
:100C70007F938F939F93AF93BF93EF93FF93E091F5
:100C80009A00F0919B00309709F00995FF91EF9140
:100C9000BF91AF919F918F917F916F915F914F9194
:100CA0003F912F910F900FBE0F901F9018950E94AB
:100CB0006B060C944C070E94450758F00E943E07B3
:100CC00040F029F45F3F29F00C94350751110C9442
:100CD00080070C943B070E945D0768F39923B1F3EA
:100CE000552391F3951B550BBB27AA276217730752
:100CF000840738F09F5F5F4F220F331F441FAA1FE6
:100D0000A9F335D00E2E3AF0E0E832D091505040A1
:100D1000E695001CCAF72BD0FE2F29D0660F771F4F
:100D2000881FBB1F261737074807AB07B0E809F035
:100D3000BB0B802DBF01FF2793585F4F3AF09E3FBA
:100D4000510578F00C9435070C9480075F3FE4F36D
:100D5000983ED4F3869577956795B795F7959F5FFD
:100D6000C9F7880F911D9695879597F90895E1E049
:100D7000660F771F881FBB1F621773078407BA07A8
:100D800020F0621B730B840BBA0BEE1F88F7E09503
:100D900008950E94650788F09F5798F0B92F99270A
:100DA000B751B0F0E1F0660F771F881F991F1AF056
:100DB000BA95C9F714C0B13091F00E947F07B1E035
:100DC00008950C947F07672F782F8827B85F39F034
:100DD000B93FCCF3869577956795B395D9F73EF4EF
:100DE00090958095709561957F4F8F4F9F4F089597
:100DF000E89409C097FB3EF49095809570956195B5
:100E00007F4F8F4F9F4F9923A9F0F92F96E9BB276A
:100E10009395F695879577956795B795F111F8CFE6
:100E2000FAF4BB0F11F460FF1BC06F5F7F4F8F4F51
:100E30009F4F16C0882311F096E911C0772321F047
:100E40009EE8872F762F05C0662371F096E8862FDF
:100E500070E060E02AF09A95660F771F881FDAF736
:100E6000880F9695879597F9089597F99F6780E879
:100E700070E060E008959FEF80EC089500240A94EC
:100E80001616170618060906089500240A94121665
:100E90001306140605060895092E0394000C11F498
:100EA000882352F0BB0F40F4BF2B11F460FF04C045
:100EB0006F5F7F4F8F4F9F4F089557FD9058440F9E
:100EC000551F59F05F3F71F04795880F97FB991FA9
:100ED00061F09F3F79F08795089512161306140666
:100EE000551FF2CF4695F1DF08C0161617061806F3
:100EF000991FF1CF86957105610508940895E894CE
:100F0000BB2766277727CB0197F908950E94990799
:100F10000C944C070E943E0738F00E94450720F0D1
:100F2000952311F00C9435070C943B0711240C9475
:100F300080070E945D0770F3959FC1F3950F50E005
:100F4000551F629FF001729FBB27F00DB11D639F7B
:100F5000AA27F00DB11DAA1F649F6627B00DA11D21
:100F6000661F829F2227B00DA11D621F739FB00DC7
:100F7000A11D621F839FA00D611D221F749F332737
:100F8000A00D611D231F849F600D211D822F762FD0
:100F90006A2F11249F5750409AF0F1F088234AF0AD
:100FA000EE0FFF1FBB1F661F771F881F9150504019
:100FB000A9F79E3F510580F00C9435070C948007EB
:100FC0005F3FE4F3983ED4F3869577956795B795A0
:100FD000F795E7959F5FC1F7FE2B880F911D9695BA
:100FE000879597F90895A29FB001B39FC001A39F71
:100FF000700D811D1124911DB29F700D811D112452
:08100000911D0895F894FFCF43
:10100800FF3B00380035003200390036003300302D
:10101800003A003700340031004C6D3335207465D8
:101028007374203A0074656D70203A20006F430095
:00000001FF
