:100000000C942A000C94AC040C94D3040C94FA04C1
:100010000C9447000C9447000C94C5050C94730590
:100020000C949C050C944A050C9421050C944700F3
:100030000C9447000C9447000C9447000C94470024
:100040000C94FB030C9447000C9447000C9447005D
:100050000C94470011241FBECFE5D8E0DEBFCDBF12
:1000600010E0A0E6B0E0E6E2FCE002C005900D92F0
:10007000A839B107D9F720E0A8E9B0E001C01D9286
:10008000A93BB207E1F70E94E5030C9411060C941A
:1000900000001F93CF93DF93EC01162F60EF8C814C
:1000A0000E944E046FE08C810E94810400C000C059
:1000B000000081E090E002C0880F991F1A95E2F7D6
:1000C0008095182F107F612F8C810E948E048C8167
:1000D0000E949D048F708F3011F0812B01C08FEF33
:1000E000DF91CF911F9108950F931F93CF93DF93CB
:1000F0008C01D4E0CFEF09C06D2FC8010E944900E8
:100100008F3F09F48C2FDF5FC82FD830A8F380E031
:100110000EC0282F30E0F901E857FF4F9081C91336
:1001200005C0F901E858FF4F808104C08F5F80311E
:1001300080F385E4D80113969C91913061F028F00A
:100140009230E1F0933089F140C0CF3FF1F181E08E
:10015000F80183833AC0CF3F71F092E0D801139643
:100160009C9313979C91911130C01196ED91FC9145
:10017000129709952AC0F801138227C0CF3F81F05A
:10018000D8019C91913009F51196ED91FC9112974F
:100190000995E3E2F4EF3197F1F700C0000015C0D4
:1001A00083E0D80113968C9310C0CF3F51F0F80133
:1001B00013829081923049F40180F281E02D0995FB
:1001C00004C082E0D80113968C9380E00EC0282FE3
:1001D00030E0F901E857FF4F9081C91305C0F901DC
:1001E000E858FF4F808104C08F5F803180F38AE53B
:1001F000DF91CF911F910F910895EF92FF920F938E
:100200001F93CF93DF93EC01E62EF42E890160EF6C
:100210008C810E944E046FE08C810E948104EC82EC
:100220001B82F8821A830983DF91CF911F910F916E
:10023000FF90EF900895CF93C82F40E065E082E0F3
:100240000E945B0441E064E082E00E945B044C2F6A
:10025000407150E05595479555954795559547956B
:100260005595479560E082E00E945B044C2F4072F8
:1002700050E0559547955595479555954795559512
:1002800047955595479561E082E00E945B044C2FAD
:10029000407450E0042E452F000C441F550B000CF9
:1002A000441F551F62E082E00E945B044C2F441FF4
:1002B0004427441F63E082E00E945B0441E066E063
:1002C00082E00E945B0483EF91E00197F1F700C0A8
:1002D000000040E066E082E00E945B0483EF91E072
:1002E0000197F1F700C000004C2F417060E082E000
:1002F0000E945B044C2F427050E05595479561E099
:1003000082E00E945B044C2F447050E05595479565
:100310005595479562E082E00E945B04C8704C2FBF
:1003200050E055954795559547955595479563E008
:1003300082E00E945B0441E066E082E00E945B0490
:1003400083EF91E00197F1F700C0000040E066E024
:1003500082E00E945B0483EF91E00197F1F700C017
:100360000000CF910895CF93C82F40E065E082E070
:100370000E945B0440E064E082E00E945B044C2F3A
:10038000407150E05595479555954795559547953A
:100390005595479560E082E00E945B044C2F4072C7
:1003A00050E05595479555954795559547955595E1
:1003B00047955595479561E082E00E945B044C2F7C
:1003C000407450E0042E452F000C441F550B000CC8
:1003D000441F551F62E082E00E945B044C2F441FC3
:1003E0004427441F63E082E00E945B0441E066E032
:1003F00082E00E945B0483EF91E00197F1F700C077
:10040000000040E066E082E00E945B0483EF91E040
:100410000197F1F700C000004C2F417060E082E0CE
:100420000E945B044C2F427050E05595479561E067
:1004300082E00E945B044C2F447050E05595479534
:100440005595479562E082E00E945B04C8704C2F8E
:1004500050E055954795559547955595479563E0D7
:1004600082E00E945B0441E066E082E00E945B045F
:1004700083EF91E00197F1F700C0000040E066E0F3
:1004800082E00E945B0483EF91E00197F1F700C0E6
:100490000000CF91089541E064E082E00E942404CE
:1004A00041E066E082E00E94240441E065E082E0F1
:1004B0000E94240441E060E082E00E94240441E0C4
:1004C00061E082E00E94240441E062E082E00E9458
:1004D000240441E063E082E00E94240485EA9EE077
:1004E0000197F1F700C0000083E30E94B30191E29D
:1004F0009A95F1F7000082E30E94B30181E28A95A8
:10050000F1F7000088E20E94B30191E29A95F1F7B9
:10051000000081E00E94B30183EF91E00197F1F7C1
:1005200000C0000082E00E94B30183EF91E00197D8
:10053000F1F700C000008CE00E94B30191E29A95AF
:10054000F1F700000895181614F40E941B01089595
:1005500081E00E94B30183EF91E00197F1F700C0C1
:1005600000000895813039F4603168F480E8860F26
:100570000E94B3010895823031F4603120F480ECA0
:10058000860F0E94B30108951F93CF93DF93CDB7D9
:10059000DEB72A970FB6F894DEBF0FBECDBFAC0111
:1005A000892B91F580E30E941B0142C09A01ADECBA
:1005B000BCEC0E9402069695879596958795969530
:1005C00087959C01220F331F880F991F880F991F51
:1005D000880F991F820F931F9A01281B390BC9019D
:1005E000805DE1E0F0E0EC0FFD1FE10FF11D808385
:1005F0009A010E940206AC0156954795569547957B
:10060000569547951F5F01C010E04115510571F6E1
:100610000DC0E12FF0E0319781E090E08C0F9D1F3D
:10062000E80FF91F80810E941B0111501111F1CFB9
:100630002A960FB6F894DEBF0FBECDBFDF91CF91E3
:100640001F9108951F93CF93DF93182F833649F49A
:100650000E94A8021092980010929B0010929A009B
:10066000B0C080919900882321F00E94A8021092C6
:100670009900812F0E94A30280ED810F8A3078F4C7
:100680009091980091110BC090919B00E92FF0E0A0
:10069000EC54FF4F80839F5F90939B001CC095EDAF
:1006A000910F953010F0183531F41093AE0082E0C0
:1006B0008093980010C08A3070F490919800923026
:1006C00051F490919A00E92FF0E0E155FF4F8083BB
:1006D0009F5F90939A001D3309F073C090919B0027
:1006E00021E030E040E050E018C0E92FF0E0ED54A8
:1006F000FF4F8081829FB001839F700D1124460FB0
:10070000571FB901660F771F220F331F220F331FA8
:10071000220F331F260F371F91509111E6CF909172
:100720009A0021E030E060E070E018C0E92FF0E0CE
:10073000E255FF4F8081829FF001839FF00D1124CD
:100740006E0F7F1FF901EE0FFF1F220F331F220FC5
:10075000331F220F331F2E0F3F1F91509111E6CFF1
:100760008091AE008D3269F018F48B3231F019C0EF
:100770008F3299F0883549F014C0EA01C60FD71FAF
:1007800010C0EA01C61BD70B0CC0469FE001479F73
:10079000D00D569FD00D112404C0CA010E94EE0551
:1007A000EB0160E082E00E94B202CE010E94C4022E
:1007B00081E0809399001092980010929B00109213
:1007C0009A00DF91CF911F910895CF93DF9300D0CE
:1007D00000D01F92CDB7DEB70E944B0222E233E079
:1007E00041E060E0CE0101960E94FD00CE0101963D
:1007F0000E947400FBCF1F920F920FB60F9211242C
:100800002F933F934F935F936F937F938F939F9318
:10081000AF93BF93EF93FF93E0919C00F0919D0005
:10082000309709F00995FF91EF91BF91AF919F919A
:100830008F917F916F915F914F913F912F910F9089
:100840000FBE0F901F901895843010F5683010F58A
:10085000423010F5E82FF0E0EE0FFF1FE059FF4F98
:100860000190F081E02D208181E090E0062E02C011
:10087000880F991F0A94E2F750E002C0440F551FF9
:100880006A95E2F780958223482B408380E00895A3
:1008900081E0089581E0089581E00895843050F466
:1008A000E82FF0E0EE0FFF1FE059FF4F0190F081BD
:1008B000E02D60830895843000F5683000F5E82F5E
:1008C000F0E0EE0FFF1FE05AFF4F0190F081E02DA6
:1008D000208181E090E0062E02C0880F991F0A94C3
:1008E000E2F750E002C0440F551F6A95E2F7809589
:1008F0008223482B408380E0089581E0089581E0C1
:100900000895843050F4E82FF0E0EE0FFF1FE05A16
:10091000FF4F0190F081E02D60830895843060F4F2
:10092000E82FF0E0EE0FFF1FE05AFF4F0190F0813B
:10093000E02D8081682B60830895843058F4E82F7F
:10094000F0E0EE0FFF1FE859FF4F0190F081E02D1E
:10095000808108958FEF08951F920F920FB60F9226
:1009600011242F933F934F935F936F937F938F93B4
:100970009F93AF93BF93EF93FF93E091A200F09109
:10098000A3000995FF91EF91BF91AF919F918F9136
:100990007F916F915F914F913F912F910F900FBE7B
:1009A0000F901F9018951F920F920FB60F9211245F
:1009B0002F933F934F935F936F937F938F939F9367
:1009C000AF93BF93EF93FF93E091A000F091A1004C
:1009D0000995FF91EF91BF91AF919F918F917F9179
:1009E0006F915F914F913F912F910F900FBE0F909C
:1009F0001F9018951F920F920FB60F9211242F93EC
:100A00003F934F935F936F937F938F939F93AF9396
:100A1000BF93EF93FF93E0919E00F0919F000995A3
:100A2000FF91EF91BF91AF919F918F917F916F91C6
:100A30005F914F913F912F910F900FBE0F901F909C
:100A400018951F920F920FB60F9211242F933F9378
:100A50004F935F936F937F938F939F93AF93BF93C6
:100A6000EF93FF93E091AC00F091AD00309709F067
:100A70000995FF91EF91BF91AF919F918F917F91D8
:100A80006F915F914F913F912F910F900FBE0F90FB
:100A90001F9018951F920F920FB60F9211242F934B
:100AA0003F934F935F936F937F938F939F93AF93F6
:100AB000BF93EF93FF93E091AA00F091AB003097C2
:100AC00009F00995FF91EF91BF91AF919F918F919F
:100AD0007F916F915F914F913F912F910F900FBE3A
:100AE0000F901F9018951F920F920FB60F9211241E
:100AF0002F933F934F935F936F937F938F939F9326
:100B0000AF93BF93EF93FF93E091A800F091A900FA
:100B1000309709F00995FF91EF91BF91AF919F91A7
:100B20008F917F916F915F914F913F912F910F9096
:100B30000FBE0F901F9018951F920F920FB60F9235
:100B400011242F933F934F935F936F937F938F93D2
:100B50009F93AF93BF93EF93FF93E091A600F09123
:100B6000A700309709F00995FF91EF91BF91AF91E0
:100B70009F918F917F916F915F914F913F912F91B5
:100B80000F900FBE0F901F9018951F920F920FB6E7
:100B90000F9211242F933F934F935F936F937F9303
:100BA0008F939F93AF93BF93EF93FF93E091A40034
:100BB000F091A500309709F00995FF91EF91BF9151
:100BC000AF919F918F917F916F915F914F913F91E5
:100BD0002F910F900FBE0F901F901895AA1BBB1B53
:100BE00051E107C0AA1FBB1FA617B70710F0A61B2D
:100BF000B70B881F991F5A95A9F780959095BC014E
:100C0000CD010895A29FB001B39FC001A39F700DB5
:100C1000811D1124911DB29F700D811D1124911D04
:060C20000895F894FFCFD7
:100C26003B00380035003200390036003300300012
:100C36003A003700340031003738392F343536580A
:100C46003132332D63303D2BEEDEBE7EEDDDBD7DD4
:080C5600EBDBBB7BE7D7B777AE
:00000001FF
