:100000000C942A000C94AA020C94D1020C94F802CD
:100010000C9447000C9447000C94C3030C94710398
:100020000C949A030C9448030C941F030C944700FF
:100030000C9447000C9447000C9447000C94470024
:100040000C9431020C9447000C9447000C94470028
:100050000C94470011241FBECFE5D8E0DEBFCDBF12
:1000600010E0A0E6B0E0EAE6F8E002C005900D92EC
:10007000A437B107D9F720E0A4E7B0E001C01D9292
:10008000A638B207E1F70E94FB010C9433040C94EC
:100090000000CF93C82F40E065E082E00E94840218
:1000A00041E064E082E00E9484024C2F407150E005
:1000B0005595479555954795559547955595479528
:1000C00060E082E00E9484024C2F407250E055951F
:1000D0004795559547955595479555954795559508
:1000E000479561E082E00E9484024C2F407450E00A
:1000F000042E452F000C441F550B000C441F551FA8
:1001000062E082E00E9484024C2F441F4427441F77
:1001100063E082E00E94840241E066E082E00E94A7
:10012000840283EF91E00197F1F700C0000040E006
:1001300066E082E00E94840283EF91E00197F1F78C
:1001400000C000004C2F417060E082E00E948402F9
:100150004C2F427050E05595479561E082E00E9437
:1001600084024C2F447050E055954795559547951E
:1001700062E082E00E948402C8704C2F50E05595E6
:100180004795559547955595479563E082E00E94C0
:10019000840241E066E082E00E94840283EF91E005
:1001A0000197F1F700C0000040E066E082E00E94A5
:1001B000840283EF91E00197F1F700C00000CF9136
:1001C0000895CF93C82F40E065E082E00E9484024A
:1001D00040E064E082E00E9484024C2F407150E0D5
:1001E00055954795559547955595479555954795F7
:1001F00060E082E00E9484024C2F407250E05595EE
:1002000047955595479555954795559547955595D6
:10021000479561E082E00E9484024C2F407450E0D8
:10022000042E452F000C441F550B000C441F551F76
:1002300062E082E00E9484024C2F441F4427441F46
:1002400063E082E00E94840241E066E082E00E9476
:10025000840283EF91E00197F1F700C0000040E0D5
:1002600066E082E00E94840283EF91E00197F1F75B
:1002700000C000004C2F417060E082E00E948402C8
:100280004C2F427050E05595479561E082E00E9406
:1002900084024C2F447050E05595479555954795ED
:1002A00062E082E00E948402C8704C2F50E05595B5
:1002B0004795559547955595479563E082E00E948F
:1002C000840241E066E082E00E94840283EF91E0D4
:1002D0000197F1F700C0000040E066E082E00E9474
:1002E000840283EF91E00197F1F700C00000CF9105
:1002F000089541E064E082E00E945A0241E066E035
:1003000082E00E945A0241E065E082E00E945A02C7
:1003100041E060E082E00E945A0241E061E082E058
:100320000E945A0241E062E082E00E945A0241E0EB
:1003300063E082E00E945A0285EA9EE00197F1F7AD
:1003400000C0000083E30E94E10091E29A95F1F77A
:10035000000082E30E94E10081E28A95F1F700004B
:1003600088E20E94E10091E29A95F1F7000081E0B5
:100370000E94E10083EF91E00197F1F700C00000D7
:1003800082E00E94E10083EF91E00197F1F700C065
:1003900000008CE00E94E10091E29A95F1F70000E4
:1003A0000895181614F40E94490008950F931F939E
:1003B000CF938C01C0E003C0CF5F0E94D101F80150
:1003C000EC0FF11D80818111F7CFCF911F910F911B
:1003D0000895813039F4603168F480E8860F0E9416
:1003E000E1000895823031F4603120F480EC860F12
:1003F0000E94E1000895CF93DF93CDB7DEB7C456D6
:10040000D1090FB6F894DEBF0FBECDBF0E94EC033A
:100410000E94790140E060E083E00E945A0241E0DE
:1004200061E083E00E945A0241E061E080E00E94C6
:100430005A0280E790E00E94D601FE01319684E6E0
:10044000DF011D928A95E9F7CE0101960E94120400
:1004500060E080E00E94E901CE0101960E94D60191
:10046000F3CF1F920F920FB60F9211242F933F9349
:100470004F935F936F937F938F939F93AF93BF93AC
:10048000EF93FF93E0917400F0917500309709F0BD
:100490000995FF91EF91BF91AF919F918F917F91BE
:1004A0006F915F914F913F912F910F900FBE0F90E1
:1004B0001F901895843010F5683010F5423010F513
:1004C000E82FF0E0EE0FFF1FE859FF4F0190F08199
:1004D000E02D208181E090E0062E02C0880F991F58
:1004E0000A94E2F750E002C0440F551F6A95E2F704
:1004F00080958223482B408380E0089581E0089511
:1005000081E0089581E00895843000F5683000F5B9
:10051000E82FF0E0EE0FFF1FE05AFF4F0190F0814F
:10052000E02D208181E090E0062E02C0880F991F07
:100530000A94E2F750E002C0440F551F6A95E2F7B3
:1005400080958223482B408380E0089581E00895C0
:1005500081E008951F920F920FB60F9211242F93EE
:100560003F934F935F936F937F938F939F93AF933B
:10057000BF93EF93FF93E0917A00F0917B00099590
:10058000FF91EF91BF91AF919F918F917F916F916B
:100590005F914F913F912F910F900FBE0F901F9041
:1005A00018951F920F920FB60F9211242F933F931D
:1005B0004F935F936F937F938F939F93AF93BF936B
:1005C000EF93FF93E0917800F09179000995FF9106
:1005D000EF91BF91AF919F918F917F916F915F91BB
:1005E0004F913F912F910F900FBE0F901F90189534
:1005F0001F920F920FB60F9211242F933F934F9398
:100600005F936F937F938F939F93AF93BF93EF937A
:10061000FF93E0917600F09177000995FF91EF91BB
:10062000BF91AF919F918F917F916F915F914F910A
:100630003F912F910F900FBE0F901F9018951F9212
:100640000F920FB60F9211242F933F934F935F9306
:100650006F937F938F939F93AF93BF93EF93FF938A
:10066000E0918400F0918500309709F00995FF91A1
:10067000EF91BF91AF919F918F917F916F915F911A
:100680004F913F912F910F900FBE0F901F90189593
:100690001F920F920FB60F9211242F933F934F93F7
:1006A0005F936F937F938F939F93AF93BF93EF93DA
:1006B000FF93E0918200F0918300309709F0099553
:1006C000FF91EF91BF91AF919F918F917F916F912A
:1006D0005F914F913F912F910F900FBE0F901F9000
:1006E00018951F920F920FB60F9211242F933F93DC
:1006F0004F935F936F937F938F939F93AF93BF932A
:10070000EF93FF93E0918000F0918100309709F022
:100710000995FF91EF91BF91AF919F918F917F913B
:100720006F915F914F913F912F910F900FBE0F905E
:100730001F9018951F920F920FB60F9211242F93AE
:100740003F934F935F936F937F938F939F93AF9359
:10075000BF93EF93FF93E0917E00F0917F0030977D
:1007600009F00995FF91EF91BF91AF919F918F9102
:100770007F916F915F914F913F912F910F900FBE9D
:100780000F901F9018951F920F920FB60F92112481
:100790002F933F934F935F936F937F938F939F9389
:1007A000AF93BF93EF93FF93E0917C00F0917D00B6
:1007B000309709F00995FF91EF91BF91AF919F910B
:1007C0008F917F916F915F914F913F912F910F90FA
:1007D0000FBE0F901F90189510BC83E389B98BB1A1
:1007E0008D7F8BB98AB180618AB98AB188608AB9F4
:1007F00080B58F7B80BD80B58F7E80BD80B58F7DBD
:1008000080BD80B5877F80BD80B5826080BD80B5AA
:10081000846080BD8AB18B7F8AB908955F9BFECFCB
:100820008CB10895EF92FF920F931F93CF938C0199
:100830000E940E04F8018083C0E008C0CF5F7801F9
:10084000EC0EF11C0E940E04F7018083F801EC0FFE
:10085000F11D8081893091F71082CF911F910F9106
:0A086000FF90EF900895F894FFCF89
:10086A003B003800350032003A00370034003100CE
:04087A0052582000B0
:00000001FF
